{
  "_format": "hh-sol-artifact-1",
  "contractName": "Trendsol",
  "sourceName": "contracts/Trendsol.sol",
  "abi": [
    {
      "inputs": [
        {
          "internalType": "string",
          "name": "_name",
          "type": "string"
        },
        {
          "internalType": "string",
          "name": "_details",
          "type": "string"
        },
        {
          "internalType": "uint256",
          "name": "_price",
          "type": "uint256"
        },
        {
          "internalType": "uint256",
          "name": "_initialStock",
          "type": "uint256"
        },
        {
          "internalType": "bool",
          "name": "_onSale",
          "type": "bool"
        }
      ],
      "name": "addProduct",
      "outputs": [],
      "stateMutability": "nonpayable",
      "type": "function"
    },
    {
      "inputs": [],
      "name": "countSellers",
      "outputs": [
        {
          "internalType": "uint256",
          "name": "",
          "type": "uint256"
        }
      ],
      "stateMutability": "view",
      "type": "function"
    },
    {
      "inputs": [
        {
          "internalType": "uint256",
          "name": "_id",
          "type": "uint256"
        },
        {
          "internalType": "uint256",
          "name": "_count",
          "type": "uint256"
        }
      ],
      "name": "decrStock",
      "outputs": [],
      "stateMutability": "nonpayable",
      "type": "function"
    },
    {
      "inputs": [],
      "name": "getProducts",
      "outputs": [
        {
          "components": [
            {
              "internalType": "address",
              "name": "seller",
              "type": "address"
            },
            {
              "internalType": "string",
              "name": "name",
              "type": "string"
            },
            {
              "internalType": "string",
              "name": "details",
              "type": "string"
            },
            {
              "internalType": "bool",
              "name": "onSale",
              "type": "bool"
            },
            {
              "internalType": "uint256",
              "name": "price",
              "type": "uint256"
            },
            {
              "internalType": "uint256",
              "name": "stock",
              "type": "uint256"
            },
            {
              "internalType": "uint256",
              "name": "lastUpdated",
              "type": "uint256"
            }
          ],
          "internalType": "struct TrendsolBase.Product[]",
          "name": "",
          "type": "tuple[]"
        }
      ],
      "stateMutability": "view",
      "type": "function"
    },
    {
      "inputs": [],
      "name": "getSellers",
      "outputs": [
        {
          "components": [
            {
              "internalType": "address",
              "name": "addr",
              "type": "address"
            },
            {
              "internalType": "string",
              "name": "tradeName",
              "type": "string"
            },
            {
              "internalType": "string",
              "name": "contactNumber",
              "type": "string"
            },
            {
              "internalType": "uint256",
              "name": "approved",
              "type": "uint256"
            },
            {
              "internalType": "uint256",
              "name": "sold",
              "type": "uint256"
            }
          ],
          "internalType": "struct TrendsolBase.Seller[]",
          "name": "",
          "type": "tuple[]"
        }
      ],
      "stateMutability": "view",
      "type": "function"
    },
    {
      "inputs": [
        {
          "internalType": "uint256",
          "name": "_id",
          "type": "uint256"
        },
        {
          "internalType": "uint256",
          "name": "_count",
          "type": "uint256"
        }
      ],
      "name": "incStock",
      "outputs": [],
      "stateMutability": "nonpayable",
      "type": "function"
    },
    {
      "inputs": [
        {
          "internalType": "address",
          "name": "_seller",
          "type": "address"
        }
      ],
      "name": "isApproved",
      "outputs": [
        {
          "internalType": "bool",
          "name": "approved",
          "type": "bool"
        }
      ],
      "stateMutability": "view",
      "type": "function"
    },
    {
      "inputs": [
        {
          "internalType": "address",
          "name": "",
          "type": "address"
        },
        {
          "internalType": "uint256",
          "name": "",
          "type": "uint256"
        }
      ],
      "name": "products",
      "outputs": [
        {
          "internalType": "uint256",
          "name": "",
          "type": "uint256"
        }
      ],
      "stateMutability": "view",
      "type": "function"
    },
    {
      "inputs": [
        {
          "internalType": "string",
          "name": "_tradeName",
          "type": "string"
        },
        {
          "internalType": "string",
          "name": "_contactNumber",
          "type": "string"
        }
      ],
      "name": "register",
      "outputs": [],
      "stateMutability": "nonpayable",
      "type": "function"
    },
    {
      "inputs": [
        {
          "internalType": "address",
          "name": "",
          "type": "address"
        }
      ],
      "name": "registered",
      "outputs": [
        {
          "internalType": "bool",
          "name": "",
          "type": "bool"
        }
      ],
      "stateMutability": "view",
      "type": "function"
    },
    {
      "inputs": [
        {
          "internalType": "address",
          "name": "",
          "type": "address"
        }
      ],
      "name": "sellers",
      "outputs": [
        {
          "internalType": "uint256",
          "name": "",
          "type": "uint256"
        }
      ],
      "stateMutability": "view",
      "type": "function"
    },
    {
      "inputs": [
        {
          "internalType": "string",
          "name": "_contactNumber",
          "type": "string"
        }
      ],
      "name": "setContactNumber",
      "outputs": [],
      "stateMutability": "nonpayable",
      "type": "function"
    },
    {
      "inputs": [
        {
          "internalType": "string",
          "name": "_tradeName",
          "type": "string"
        }
      ],
      "name": "setTradeName",
      "outputs": [],
      "stateMutability": "nonpayable",
      "type": "function"
    },
    {
      "inputs": [
        {
          "internalType": "address",
          "name": "_seller",
          "type": "address"
        }
      ],
      "name": "toggleApproval",
      "outputs": [],
      "stateMutability": "nonpayable",
      "type": "function"
    },
    {
      "inputs": [
        {
          "internalType": "uint256",
          "name": "_id",
          "type": "uint256"
        }
      ],
      "name": "toggleSale",
      "outputs": [],
      "stateMutability": "nonpayable",
      "type": "function"
    }
  ],
  "bytecode": "0x608060405234801561001057600080fd5b50612801806100206000396000f3fe608060405234801561001057600080fd5b50600436106100f55760003560e01c80639a203d6d11610097578063c29b2f2011610066578063c29b2f201461026c578063e72f98431461028a578063f281aa84146102a6578063fc640949146102c4576100f5565b80639a203d6d146101e85780639e20622c14610204578063b2dd5c0714610220578063bf9ed1b114610250576100f5565b8063490531ba116100d3578063490531ba1461014e578063673448dd1461016a5780636d47ab721461019a5780637ee454cb146101ca576100f5565b806324efd9e3146100fa5780632b62d30b146101165780633ffbd47f14610132575b600080fd5b610114600480360381019061010f91906117dd565b6102f4565b005b610130600480360381019061012b9190611882565b6104a1565b005b61014c600480360381019061014791906118cf565b6105a4565b005b610168600480360381019061016391906119ae565b61085e565b005b610184600480360381019061017f91906119ae565b610b26565b60405161019191906119f6565b60405180910390f35b6101b460048036038101906101af91906119ae565b610c47565b6040516101c19190611a20565b60405180910390f35b6101d2610c5f565b6040516101df9190611c28565b60405180910390f35b61020260048036038101906101fd91906117dd565b610e4c565b005b61021e60048036038101906102199190611882565b611040565b005b61023a600480360381019061023591906119ae565b611143565b60405161024791906119f6565b60405180910390f35b61026a60048036038101906102659190611c76565b611163565b005b610274611420565b6040516102819190611ea6565b60405180910390f35b6102a4600480360381019061029f9190611ec8565b611632565b005b6102ae61175f565b6040516102bb9190611a20565b60405180910390f35b6102de60048036038101906102d99190611ef5565b61176c565b6040516102eb9190611a20565b60405180910390f35b600260003373ffffffffffffffffffffffffffffffffffffffff1673ffffffffffffffffffffffffffffffffffffffff16815260200190815260200160002060009054906101000a900460ff16610380576040517f08c379a000000000000000000000000000000000000000000000000000000000815260040161037790611fb8565b60405180910390fd5b8180600980549050116103c8576040517f08c379a00000000000000000000000000000000000000000000000000000000081526004016103bf90612024565b60405180910390fd5b6000600984815481106103de576103dd612044565b5b906000526020600020906007020190503373ffffffffffffffffffffffffffffffffffffffff168160000160009054906101000a900473ffffffffffffffffffffffffffffffffffffffff1673ffffffffffffffffffffffffffffffffffffffff1614610480576040517f08c379a0000000000000000000000000000000000000000000000000000000008152600401610477906120bf565b60405180910390fd5b82816005016000828254610494919061210e565b9250508190555050505050565b600260003373ffffffffffffffffffffffffffffffffffffffff1673ffffffffffffffffffffffffffffffffffffffff16815260200190815260200160002060009054906101000a900460ff1661052d576040517f08c379a000000000000000000000000000000000000000000000000000000000815260040161052490611fb8565b60405180910390fd5b818160086000803373ffffffffffffffffffffffffffffffffffffffff1673ffffffffffffffffffffffffffffffffffffffff168152602001908152602001600020548154811061058157610580612044565b5b9060005260206000209060050201600201918261059f929190612388565b505050565b600260003373ffffffffffffffffffffffffffffffffffffffff1673ffffffffffffffffffffffffffffffffffffffff16815260200190815260200160002060009054906101000a900460ff1615610631576040517f08c379a0000000000000000000000000000000000000000000000000000000008152600401610628906124ca565b60405180910390fd5b6001600260003373ffffffffffffffffffffffffffffffffffffffff1673ffffffffffffffffffffffffffffffffffffffff16815260200190815260200160002060006101000a81548160ff0219169083151502179055506000600880549050905060006040518060a001604052803373ffffffffffffffffffffffffffffffffffffffff16815260200187878080601f016020809104026020016040519081016040528093929190818152602001838380828437600081840152601f19601f82011690508083019250505050505050815260200185858080601f016020809104026020016040519081016040528093929190818152602001838380828437600081840152601f19601f8201169050808301925050505050505081526020016000815260200160008152509050600881908060018154018082558091505060019003906000526020600020906005020160009091909190915060008201518160000160006101000a81548173ffffffffffffffffffffffffffffffffffffffff021916908373ffffffffffffffffffffffffffffffffffffffff16021790555060208201518160010190816107e691906124ea565b5060408201518160020190816107fc91906124ea565b5060608201518160030155608082015181600401555050816000803373ffffffffffffffffffffffffffffffffffffffff1673ffffffffffffffffffffffffffffffffffffffff16815260200190815260200160002081905550505050505050565b80600260008273ffffffffffffffffffffffffffffffffffffffff1673ffffffffffffffffffffffffffffffffffffffff16815260200190815260200160002060009054906101000a900460ff166108eb576040517f08c379a00000000000000000000000000000000000000000000000000000000081526004016108e290612608565b60405180910390fd5b8173ffffffffffffffffffffffffffffffffffffffff163373ffffffffffffffffffffffffffffffffffffffff1603610959576040517f08c379a000000000000000000000000000000000000000000000000000000000815260040161095090612674565b60405180910390fd5b600060086000808573ffffffffffffffffffffffffffffffffffffffff1673ffffffffffffffffffffffffffffffffffffffff16815260200190815260200160002054815481106109ad576109ac612044565b5b906000526020600020906005020190506000600360003373ffffffffffffffffffffffffffffffffffffffff1673ffffffffffffffffffffffffffffffffffffffff16815260200190815260200160002060008573ffffffffffffffffffffffffffffffffffffffff1673ffffffffffffffffffffffffffffffffffffffff16815260200190815260200160002060009054906101000a900460ff1690508015600360003373ffffffffffffffffffffffffffffffffffffffff1673ffffffffffffffffffffffffffffffffffffffff16815260200190815260200160002060008673ffffffffffffffffffffffffffffffffffffffff1673ffffffffffffffffffffffffffffffffffffffff16815260200190815260200160002060006101000a81548160ff0219169083151502179055508015610b0557816003016000815480929190610afb90612694565b9190505550610b20565b816003016000815480929190610b1a906126bd565b91905055505b50505050565b600081600260008273ffffffffffffffffffffffffffffffffffffffff1673ffffffffffffffffffffffffffffffffffffffff16815260200190815260200160002060009054906101000a900460ff16610bb5576040517f08c379a0000000000000000000000000000000000000000000000000000000008152600401610bac90612608565b60405180910390fd5b600360003373ffffffffffffffffffffffffffffffffffffffff1673ffffffffffffffffffffffffffffffffffffffff16815260200190815260200160002060008473ffffffffffffffffffffffffffffffffffffffff1673ffffffffffffffffffffffffffffffffffffffff16815260200190815260200160002060009054906101000a900460ff16915050919050565b60006020528060005260406000206000915090505481565b60606008805480602002602001604051908101604052809291908181526020016000905b82821015610e4357838290600052602060002090600502016040518060a00160405290816000820160009054906101000a900473ffffffffffffffffffffffffffffffffffffffff1673ffffffffffffffffffffffffffffffffffffffff1673ffffffffffffffffffffffffffffffffffffffff168152602001600182018054610d0c906121ab565b80601f0160208091040260200160405190810160405280929190818152602001828054610d38906121ab565b8015610d855780601f10610d5a57610100808354040283529160200191610d85565b820191906000526020600020905b815481529060010190602001808311610d6857829003601f168201915b50505050508152602001600282018054610d9e906121ab565b80601f0160208091040260200160405190810160405280929190818152602001828054610dca906121ab565b8015610e175780601f10610dec57610100808354040283529160200191610e17565b820191906000526020600020905b815481529060010190602001808311610dfa57829003601f168201915b505050505081526020016003820154815260200160048201548152505081526020019060010190610c83565b50505050905090565b600260003373ffffffffffffffffffffffffffffffffffffffff1673ffffffffffffffffffffffffffffffffffffffff16815260200190815260200160002060009054906101000a900460ff16610ed8576040517f08c379a0000000000000000000000000000000000000000000000000000000008152600401610ecf90611fb8565b60405180910390fd5b818060098054905011610f20576040517f08c379a0000000000000000000000000000000000000000000000000000000008152600401610f1790612024565b60405180910390fd5b600060098481548110610f3657610f35612044565b5b906000526020600020906007020190503373ffffffffffffffffffffffffffffffffffffffff168160000160009054906101000a900473ffffffffffffffffffffffffffffffffffffffff1673ffffffffffffffffffffffffffffffffffffffff1614610fd8576040517f08c379a0000000000000000000000000000000000000000000000000000000008152600401610fcf906120bf565b60405180910390fd5b828160050154101561101f576040517f08c379a000000000000000000000000000000000000000000000000000000000815260040161101690612777565b60405180910390fd5b828160050160008282546110339190612797565b9250508190555050505050565b600260003373ffffffffffffffffffffffffffffffffffffffff1673ffffffffffffffffffffffffffffffffffffffff16815260200190815260200160002060009054906101000a900460ff166110cc576040517f08c379a00000000000000000000000000000000000000000000000000000000081526004016110c390611fb8565b60405180910390fd5b818160086000803373ffffffffffffffffffffffffffffffffffffffff1673ffffffffffffffffffffffffffffffffffffffff16815260200190815260200160002054815481106111205761111f612044565b5b9060005260206000209060050201600101918261113e929190612388565b505050565b60026020528060005260406000206000915054906101000a900460ff1681565b600260003373ffffffffffffffffffffffffffffffffffffffff1673ffffffffffffffffffffffffffffffffffffffff16815260200190815260200160002060009054906101000a900460ff166111ef576040517f08c379a00000000000000000000000000000000000000000000000000000000081526004016111e690611fb8565b60405180910390fd5b6000600980549050905060006040518060e001604052803373ffffffffffffffffffffffffffffffffffffffff1681526020018a8a8080601f016020809104026020016040519081016040528093929190818152602001838380828437600081840152601f19601f82011690508083019250505050505050815260200188888080601f016020809104026020016040519081016040528093929190818152602001838380828437600081840152601f19601f8201169050808301925050505050505081526020018415158152602001868152602001858152602001428152509050600981908060018154018082558091505060019003906000526020600020906007020160009091909190915060008201518160000160006101000a81548173ffffffffffffffffffffffffffffffffffffffff021916908373ffffffffffffffffffffffffffffffffffffffff160217905550602082015181600101908161135891906124ea565b50604082015181600201908161136e91906124ea565b5060608201518160030160006101000a81548160ff0219169083151502179055506080820151816004015560a0820151816005015560c082015181600601555050600160003373ffffffffffffffffffffffffffffffffffffffff1673ffffffffffffffffffffffffffffffffffffffff168152602001908152602001600020829080600181540180825580915050600190039060005260206000200160009091909190915055505050505050505050565b60606009805480602002602001604051908101604052809291908181526020016000905b8282101561162957838290600052602060002090600702016040518060e00160405290816000820160009054906101000a900473ffffffffffffffffffffffffffffffffffffffff1673ffffffffffffffffffffffffffffffffffffffff1673ffffffffffffffffffffffffffffffffffffffff1681526020016001820180546114cd906121ab565b80601f01602080910402602001604051908101604052809291908181526020018280546114f9906121ab565b80156115465780601f1061151b57610100808354040283529160200191611546565b820191906000526020600020905b81548152906001019060200180831161152957829003601f168201915b5050505050815260200160028201805461155f906121ab565b80601f016020809104026020016040519081016040528092919081815260200182805461158b906121ab565b80156115d85780601f106115ad576101008083540402835291602001916115d8565b820191906000526020600020905b8154815290600101906020018083116115bb57829003601f168201915b505050505081526020016003820160009054906101000a900460ff16151515158152602001600482015481526020016005820154815260200160068201548152505081526020019060010190611444565b50505050905090565b600260003373ffffffffffffffffffffffffffffffffffffffff1673ffffffffffffffffffffffffffffffffffffffff16815260200190815260200160002060009054906101000a900460ff166116be576040517f08c379a00000000000000000000000000000000000000000000000000000000081526004016116b590611fb8565b60405180910390fd5b808060098054905011611706576040517f08c379a00000000000000000000000000000000000000000000000000000000081526004016116fd90612024565b60405180910390fd5b60006009838154811061171c5761171b612044565b5b906000526020600020906007020190508060030160009054906101000a900460ff16158160030160006101000a81548160ff021916908315150217905550505050565b6000600880549050905090565b6001602052816000526040600020818154811061178857600080fd5b90600052602060002001600091509150505481565b600080fd5b600080fd5b6000819050919050565b6117ba816117a7565b81146117c557600080fd5b50565b6000813590506117d7816117b1565b92915050565b600080604083850312156117f4576117f361179d565b5b6000611802858286016117c8565b9250506020611813858286016117c8565b9150509250929050565b600080fd5b600080fd5b600080fd5b60008083601f8401126118425761184161181d565b5b8235905067ffffffffffffffff81111561185f5761185e611822565b5b60208301915083600182028301111561187b5761187a611827565b5b9250929050565b600080602083850312156118995761189861179d565b5b600083013567ffffffffffffffff8111156118b7576118b66117a2565b5b6118c38582860161182c565b92509250509250929050565b600080600080604085870312156118e9576118e861179d565b5b600085013567ffffffffffffffff811115611907576119066117a2565b5b6119138782880161182c565b9450945050602085013567ffffffffffffffff811115611936576119356117a2565b5b6119428782880161182c565b925092505092959194509250565b600073ffffffffffffffffffffffffffffffffffffffff82169050919050565b600061197b82611950565b9050919050565b61198b81611970565b811461199657600080fd5b50565b6000813590506119a881611982565b92915050565b6000602082840312156119c4576119c361179d565b5b60006119d284828501611999565b91505092915050565b60008115159050919050565b6119f0816119db565b82525050565b6000602082019050611a0b60008301846119e7565b92915050565b611a1a816117a7565b82525050565b6000602082019050611a356000830184611a11565b92915050565b600081519050919050565b600082825260208201905092915050565b6000819050602082019050919050565b611a7081611970565b82525050565b600081519050919050565b600082825260208201905092915050565b60005b83811015611ab0578082015181840152602081019050611a95565b60008484015250505050565b6000601f19601f8301169050919050565b6000611ad882611a76565b611ae28185611a81565b9350611af2818560208601611a92565b611afb81611abc565b840191505092915050565b611b0f816117a7565b82525050565b600060a083016000830151611b2d6000860182611a67565b5060208301518482036020860152611b458282611acd565b91505060408301518482036040860152611b5f8282611acd565b9150506060830151611b746060860182611b06565b506080830151611b876080860182611b06565b508091505092915050565b6000611b9e8383611b15565b905092915050565b6000602082019050919050565b6000611bbe82611a3b565b611bc88185611a46565b935083602082028501611bda85611a57565b8060005b85811015611c165784840389528151611bf78582611b92565b9450611c0283611ba6565b925060208a01995050600181019050611bde565b50829750879550505050505092915050565b60006020820190508181036000830152611c428184611bb3565b905092915050565b611c53816119db565b8114611c5e57600080fd5b50565b600081359050611c7081611c4a565b92915050565b600080600080600080600060a0888a031215611c9557611c9461179d565b5b600088013567ffffffffffffffff811115611cb357611cb26117a2565b5b611cbf8a828b0161182c565b9750975050602088013567ffffffffffffffff811115611ce257611ce16117a2565b5b611cee8a828b0161182c565b95509550506040611d018a828b016117c8565b9350506060611d128a828b016117c8565b9250506080611d238a828b01611c61565b91505092959891949750929550565b600081519050919050565b600082825260208201905092915050565b6000819050602082019050919050565b611d67816119db565b82525050565b600060e083016000830151611d856000860182611a67565b5060208301518482036020860152611d9d8282611acd565b91505060408301518482036040860152611db78282611acd565b9150506060830151611dcc6060860182611d5e565b506080830151611ddf6080860182611b06565b5060a0830151611df260a0860182611b06565b5060c0830151611e0560c0860182611b06565b508091505092915050565b6000611e1c8383611d6d565b905092915050565b6000602082019050919050565b6000611e3c82611d32565b611e468185611d3d565b935083602082028501611e5885611d4e565b8060005b85811015611e945784840389528151611e758582611e10565b9450611e8083611e24565b925060208a01995050600181019050611e5c565b50829750879550505050505092915050565b60006020820190508181036000830152611ec08184611e31565b905092915050565b600060208284031215611ede57611edd61179d565b5b6000611eec848285016117c8565b91505092915050565b60008060408385031215611f0c57611f0b61179d565b5b6000611f1a85828601611999565b9250506020611f2b858286016117c8565b9150509250929050565b600082825260208201905092915050565b7f596f7520617265206e6f74207265676973746572656420617320612073656c6c60008201527f65722e0000000000000000000000000000000000000000000000000000000000602082015250565b6000611fa2602383611f35565b9150611fad82611f46565b604082019050919050565b60006020820190508181036000830152611fd181611f95565b9050919050565b7f50726f64756374206973206e6f742076616c6964000000000000000000000000600082015250565b600061200e601483611f35565b915061201982611fd8565b602082019050919050565b6000602082019050818103600083015261203d81612001565b9050919050565b7f4e487b7100000000000000000000000000000000000000000000000000000000600052603260045260246000fd5b7f596f7520617265206e6f74207468652073656c6c657200000000000000000000600082015250565b60006120a9601683611f35565b91506120b482612073565b602082019050919050565b600060208201905081810360008301526120d88161209c565b9050919050565b7f4e487b7100000000000000000000000000000000000000000000000000000000600052601160045260246000fd5b6000612119826117a7565b9150612124836117a7565b925082820190508082111561213c5761213b6120df565b5b92915050565b600082905092915050565b7f4e487b7100000000000000000000000000000000000000000000000000000000600052604160045260246000fd5b7f4e487b7100000000000000000000000000000000000000000000000000000000600052602260045260246000fd5b600060028204905060018216806121c357607f821691505b6020821081036121d6576121d561217c565b5b50919050565b60008190508160005260206000209050919050565b60006020601f8301049050919050565b600082821b905092915050565b60006008830261223e7fffffffffffffffffffffffffffffffffffffffffffffffffffffffffffffffff82612201565b6122488683612201565b95508019841693508086168417925050509392505050565b6000819050919050565b600061228561228061227b846117a7565b612260565b6117a7565b9050919050565b6000819050919050565b61229f8361226a565b6122b36122ab8261228c565b84845461220e565b825550505050565b600090565b6122c86122bb565b6122d3818484612296565b505050565b5b818110156122f7576122ec6000826122c0565b6001810190506122d9565b5050565b601f82111561233c5761230d816121dc565b612316846121f1565b81016020851015612325578190505b612339612331856121f1565b8301826122d8565b50505b505050565b600082821c905092915050565b600061235f60001984600802612341565b1980831691505092915050565b6000612378838361234e565b9150826002028217905092915050565b6123928383612142565b67ffffffffffffffff8111156123ab576123aa61214d565b5b6123b582546121ab565b6123c08282856122fb565b6000601f8311600181146123ef57600084156123dd578287013590505b6123e7858261236c565b86555061244f565b601f1984166123fd866121dc565b60005b8281101561242557848901358255600182019150602085019450602081019050612400565b86831015612442578489013561243e601f89168261234e565b8355505b6001600288020188555050505b50505050505050565b7f596f752061726520616c7265616479207265676973746572656420617320612060008201527f73656c6c65722e00000000000000000000000000000000000000000000000000602082015250565b60006124b4602783611f35565b91506124bf82612458565b604082019050919050565b600060208201905081810360008301526124e3816124a7565b9050919050565b6124f382611a76565b67ffffffffffffffff81111561250c5761250b61214d565b5b61251682546121ab565b6125218282856122fb565b600060209050601f8311600181146125545760008415612542578287015190505b61254c858261236c565b8655506125b4565b601f198416612562866121dc565b60005b8281101561258a57848901518255600182019150602085019450602081019050612565565b868310156125a757848901516125a3601f89168261234e565b8355505b6001600288020188555050505b505050505050565b7f5468652073656c6c6572206973206e6f7420726567697374657265642e000000600082015250565b60006125f2601d83611f35565b91506125fd826125bc565b602082019050919050565b60006020820190508181036000830152612621816125e5565b9050919050565b7f596f752063616e277420617070726f766520796f757273656c66000000000000600082015250565b600061265e601a83611f35565b915061266982612628565b602082019050919050565b6000602082019050818103600083015261268d81612651565b9050919050565b600061269f826117a7565b9150600082036126b2576126b16120df565b5b600182039050919050565b60006126c8826117a7565b91507fffffffffffffffffffffffffffffffffffffffffffffffffffffffffffffffff82036126fa576126f96120df565b5b600182019050919050565b7f53746f636b206973206c657373207468616e20646563726561736520616d6f7560008201527f6e74000000000000000000000000000000000000000000000000000000000000602082015250565b6000612761602283611f35565b915061276c82612705565b604082019050919050565b6000602082019050818103600083015261279081612754565b9050919050565b60006127a2826117a7565b91506127ad836117a7565b92508282039050818111156127c5576127c46120df565b5b9291505056fea2646970667358221220ddc635e26dd55ada02d4a58633e2ebf8d68e0cd9389cd192c6da66f569c6dc3664736f6c63430008110033",
  "linkReferences": {},
  "deployedLinkReferences": {}
}